:020000040000FA
:10000000A0770020615E00004BFC00004D5E000008
:100010004D5E00004D5E00004D5E00004D5E000034
:10002000000000000000000000000000CD5F0000A4
:100030004D5E000000000000715F00004D5E00009A
:100040006561000065610000656100006561000098
:100050006561000065610000656100006561000088
:100060006561000065610000656100006561000078
:100070006561000065610000656100006561000068
:1004700065610000656100006561000053B94AB91B
:10048000002908BF00281CBF4FF0FF314FF0FF309C
:1004900000F00CB8ADF1080C6DE904CE00F01AF8CC
:1004A000DDF804E0DDE9022304B07047704700BFC7
:1004B00010F8012B11F8013B012A28BF9A42F7D00E
:1004C000D01A7047034613F8012B002AFBD1181AE3
:1004D000013870472DE9F04786468C460846089E4D
:1004E000154674461946002B40F0C1808542B2FA89
:1004F00082F245D94AB1C2F1200300FA02FC9540CC
:1005000094402EFA03F343EA0C0C4FEA154EA8B2BE
:10051000230CBCFBFEF80EFB18CC08FB00F943EAE9
:100520000C43994528D9EB1808F1FF3704D29945B7
:1005300002D9A8F102072B44A3EB0903A4B2B3FB31
:10054000FEFC0EFB1C330CFB00F044EA0344A0420B
:1005500014D92C190CF1FF3304D2A04202D9ACF10A
:1005600002032C44241A43EA07401EB1D44000235E
:1005700034607360BDE8F0874746DDE76346F1E726
:1005800092BB431B01214FEA154EAFB2200CB3FBC7
:10059000FEFC0EFB1C330CFB07F840EA03439845B6
:1005A00061D9EB180CF1FF3004D2984502D9ACF1B7
:1005B00002002B44A3EB0803A4B2B3FBFEFC0EFB2A
:1005C0001C330CFB07F744EA0344A7424DD92C190E
:1005D0000CF1FF3304D2A74202D9ACF102032C4440
:1005E000E41B43EA0040C0E7C2F120039540944079
:1005F00020FA03F12EFA03F34FEA154E9040AFB202
:100600000343B1FBFEFC0EFB1C10190C0CFB07F89E
:1006100041EA0041884522D969180CF1FF3004D223
:10062000884502D9ACF102002944A1EB08019BB234
:10063000B1FBFEFC0EFB1C110CFB07F743EA014368
:100640009F420ED9EB180CF1FF3104D29F4202D920
:10065000ACF102012B44DB1B41EA004193E7604609
:10066000E3E76146F7E76046A4E76346B8E78342FD
:1006700006D916B9002108467CE7C6E900E0F9E78B
:10068000B3FA83F78FB9834201D3724508D8BEEB22
:10069000020460EB030301209C461EB9002169E7B8
:1006A0003846FAE7C6E9004CF8E7C7F1200CBB4032
:1006B0000EFA07F522FA0CF42EFA0CF1BA401C439C
:1006C00020FA0CF3B8404FEA144901431FFA84FEA4
:1006D000B3FBF9F809FB18300B0C08FB0EFA43EAE0
:1006E00000439A4540D9E31808F1FF3004D29A45F7
:1006F00002D9A8F102002344A3EB0A0389B2B3FB99
:10070000F9F809FB183308FB0EFE41EA03418E4558
:100710002CD9611808F1FF3304D28E4502D9A8F113
:100720000203214443EA0040A1EB0E01A0FB029822
:100730004145CE46434602D306D14D4504D2013849
:10074000B9EB020E68EB0403002EA7D0B5EB0E0246
:1007500061EB030101FA0CFC22FA07F3F9404CEAC1
:100760000303C6E9003199E74046C5E74346D9E7A8
:10077000BFF34F8F0549CA6802F4E062044B13438C
:10078000CB60BFF34F8F00BFFDE700BF00ED00E07F
:100790000400FA05F0B585B000AF0446F91D904895
:1007A0000FF0AFF968B1034610F1580F00F00E8159
:1007B0008C4A01218C480FF097F800201437BD4671
:1007C000F0BDF87904F028FE6D4600233B73022348
:1007D0007B7388B0EC461CF1100220D04FF00E0E57
:1007E0002AB1BEF1040F02DD804BCCF81430002397
:1007F0003B7202237B72AAB1BEF1080F01DDCCF877
:1008000018000CF11C03002101290BD801F1100084
:10081000384410F8080C03F8010B0131F4E76FF0CD
:10082000004EDDE7BEF10D0F2EDD0E234AB1032190
:10083000397300217973B9730121F973F868CCF821
:10084000100000216FF300016FF341016FF382018B
:100850006FF3C501032060F38811C3F30A0363F348
:1008600053216FF31F5100235F4804F01BFAAD467C
:10087000002C57D0FA79531EDBB2012B07D9002A7E
:1008800000F0AB80002099E76FF01B03CEE70DF07E
:1008900066FD6D4688B06B4613F1100235D00C2111
:1008A00042B10846042901DD514C5C61082801DD94
:1008B000504898610B292BDD0C243AB10321397380
:1008C00000217973B973F973F868186100216FF327
:1008D00000016FF341016FF382016FF3C50104233F
:1008E00063F38811C4F30A0464F353216FF31F51B7
:1008F00000233D4804F0D6F9AD460121384804F004
:10090000A1FD034638B9002058E76FF00041C7E762
:100910006FF01B04D1E7384A012133480EF0E4FFA1
:1009200000204BE7FB79002B48D16E4688B06B4620
:1009300013F1100235D00C2142B10846042901DD23
:100940002E4D5D61082801DD2A4898610B292BDDB9
:100950000C253AB10321397300217973B973F97306
:10096000F868186100216FF300016FF341016FF324
:1009700082016FF3C501042363F38811C5F30A05EF
:1009800065F353216FF31F510023174804F08AF9D0
:10099000B5460021124804F055FD034638B92046FB
:1009A0000CE76FF00041C7E76FF01B05D1E7144A71
:1009B00001210D480EF098FF2046FFE6012B01D0E3
:1009C0002046FBE60DF0CDFC0120F7E60D4A0121A3
:1009D00005480EF07FFF0120F0E62046EEE600BF5E
:1009E000FC480100D4540100F4520100D853010026
:1009F000E8530100F0590100005401004C5401007B
:100A000064540100B0540100B0B582B000AF0028BA
:100A10004FD04F4B0122197918680DF065FC034641
:100A2000002840D16C4688B06B4613F1100234D0D8
:100A30000C2142B10846042901DD464D5D610828BC
:100A400001DD454898610B292ADD4FF00C0C3AB1C5
:100A50000321397100217971B971F97178681861D0
:100A600000216FF300016FF341016FF382016FF317
:100A7000C501042363F38811CCF30A0363F3532104
:100A80006FF31F510023354804F00CF9A546344B91
:100A900001221A700837BD46B0BD6FF00041C8E7AB
:100AA0006FF01B0CD3E72F4A01212C480EF01CFFDE
:100AB000F0E7274B0022197918680DF015FC034662
:100AC00000283ED16C4688B06B4613F1100232D03C
:100AD0000C2142B10846042901DD234D5D6108283F
:100AE00001DD1D4898610B2928DD4FF00C0C3AB14F
:100AF0000321397100217971B971F9717868186130
:100B000000216FF300016FF341016FF382016FF376
:100B1000C501042363F38811CCF30A0363F3532163
:100B20006FF31F5100230D4804F0BCF8A5460C4B91
:100B300000221A70AEE76FF00041CAE76FF01B0C9D
:100B4000D5E7084A012105480EF0CEFEA2E700BF16
:100B5000F0100020105501001C5A0100F452010051
:100B60004B3B0020385501006C550100B0B582B0F8
:100B700000AF0120FFF748FFFA200DF0C2FB6C46E2
:100B800088B06B4613F110022FD00C2142B10846F9
:100B9000042901DD3D4D5D61082801DD3C48986177
:100BA0000B2925DD4FF00C0C3AB1032139710021DE
:100BB0007971B971F9717868186100216FF30001DA
:100BC0006FF341016FF382016FF3C501042363F3F7
:100BD0008811CCF30A0C6CF353216FF31F510023DF
:100BE0002C4804F05FF8A54609E06FF00041CDE71E
:100BF0006FF01B0CD8E74FF4FA700DF082FB012068
:100C0000FFF7C8FD0028F6D06C4688B06B4613F19C
:100C1000100235D00C2142B10846042901DD1E4DD9
:100C20005D61082801DD1A4898610B292BDD4FF022
:100C30000C0C3AB10321397100217971B971F97144
:100C40007868186100216FF300016FF341016FF3C1
:100C500082016FF3C501042363F38811CCF30A0CFE
:100C60006CF353216FF31F5100230A4804F01AF864
:100C7000A5464FF4FA600DF044FB0837BD46B0BD01
:100C80006FF00041C7E76FF01B0CD2E794550100ED
:100C9000045A0100F4520100AC550100B0B582B015
:100CA00000AF6C4688B06B4613F110022FD00C21B8
:100CB00042B10846042901DD3D4D5D61082801DD92
:100CC0003C4898610B2925DD4FF00C0C3AB103210B
:100CD000397100217971B971F97178681861002151
:100CE0006FF300016FF341016FF382016FF3C501F0
:100CF000042363F38811CCF30A0C6CF353216FF3D4
:100D00001F5100232C4803F0CDFFA54609E06FF0EA
:100D10000041CDE76FF01B0CD8E74FF4FA700DF0EF
:100D2000F0FA0020FFF736FD0028F6D06C4688B0B8
:100D30006B4613F1100234D00C2142B1084604294D
:100D400001DD1E4D5D61082801DD1A4898610B29FF
:100D50002ADD4FF00C0C3AB1032139710021797171
:100D6000B971F9717868186100216FF300016FF3B0
:100D700041016FF382016FF3C501042363F388110E
:100D8000CCF30A0C6CF353216FF31F5100230A4874
:100D900003F088FFA5460020FFF736FE0837BD4662
:100DA000B0BD6FF00041C8E76FF01B0CD3E700BF88
:100DB000C4550100D4590100F4520100DC55010072
:100DC000F0B583B000AF6F4B1B7823B901242046E8
:100DD0000C37BD46F0BD6C4B186812F0E6FD0446BA
:100DE000002857D1684B1B6819686D4600233B717A
:100DF00002237B7188B0EC461CF110021ED00E203D
:100E000022B1042802DD614BCCF8143000233B7082
:100E100002237B70AAB1082801DDCCF818100CF170
:100E20001C03002101290CD801F1080606EB070E6E
:100E30001EF808EC03F801EB0131F3E76FF0004016
:100E4000DEE70D2823DD0E234AB10321397100218D
:100E50007971B9710121F9717868CCF8100000211D
:100E60006FF300016FF341016FF382016FF3C5016E
:100E7000012060F38811C3F30A0363F353216FF376
:100E80001F510023424803F00DFFAD469FE76FF06E
:100E90001B03D9E74FF4B0113B480DF00AFA0028C4
:100EA0000EDB394B1B793B4A032139480EF01CFD00
:100EB0000023394A1370334A1370FFF7EFFE86E7B9
:100EC000314B1A68166819796D4600233B7102236D
:100ED0007B718AB06C4614F110021BD04FF0160CD7
:100EE00022B1BCF1040F01DD2C4B636100233B7088
:100EF00002237B70DAB16346BCF1080F00DDA66106
:100F00000C2B00DDE161102B00DD206204F12403D5
:100F100000210AE06FF0004CE2E701F108003844DC
:100F200010F8080C03F8010B01310129F5D9BCF1C7
:100F3000150F23DD162342B1052139710021797186
:100F4000B9710121F9717868206100216FF3000106
:100F50006FF341016FF382016FF3C501012060F36C
:100F60008811C3F30A0363F353216FF31F51002366
:100F7000074803F097FEAD46002428E76FF01B03F7
:100F8000D9E700BF90150020F0100020F4550100B3
:100F9000F4520100285601004B3B0020045601008A
:100FA00008B5084A022108480EF094FC4FF0FF32C1
:100FB0004FF0FF3305480BF0CFF9054BA5221A700F
:100FC000FFF7D6FB48560100F4520100F816002046
:100FD000593B00202DE9F04782B000AF00220023EA
:100FE00067480BF0B9F90023664A1370664A13701C
:100FF0000DF0B6F9654B1B78DBB2A52B0FD100F0D5
:10100000CFFB002800F0A480FFF7DAFE002800F0F4
:10101000A580FFF7ABFD5A480BF05EF92DE15C4B64
:1010200000221A70DFF86CA1DFF86C9152460321A0
:1010300048460EF04FFC594A032148460EF04AFC40
:10104000574A032148460EF045FC564A03214846BC
:101050000EF040FC544A032148460EF03BFC534A34
:10106000032148460EF036FC514A032148460EF053
:1010700031FC5246032148460EF02CFC4D4A032118
:1010800048460EF027FC4C4A032148460EF022FC4D
:101090005246032148460EF01DFCE94601233B71F0
:1010A00003237B718AB0EC461CF110021AD0122087
:1010B00052B10346042802DD4049CCF81410082B35
:1010C00002DD3F4BCCF8183001233B7003237B70CB
:1010D000AAB10C2802DD3B4BCCF81C300CF12003EC
:1010E00000210AE06FF00040E2E701F1080EBE4483
:1010F0001EF808EC03F801EB01310129F5D911289C
:1011000023DD12234AB10421397100217971B971AB
:101110000121F9717868CCF8100000216FF300010B
:101120006FF341016FF382016FF3C501042060F397
:101130008811C3F30A0363F353216FF31F51002394
:10114000154803F0AFFDCD4659E76FF01B03D9E713
:101150001D4A022110480EF0BDFB55E71B4A012134
:101160000D480EF0B7FB74E16FF0004195E06FF0B1
:101170001B01A8E06FF00041D0E06FF01B01E3E03D
:10118000F81600204B3B00204A3B0020593B002032
:10119000583B002074560100F4520100B056010083
:1011A000D856010000570100385701007057010060
:1011B000A8570100A8630100E0570100F45701009F
:1011C000C85901001C580100285801005858010056
:1011D000A24A0221A2480EF07DFBA24BD3F808C020
:1011E000E94688B06B4613F1100200F0258110210A
:1011F00082B10846042903DDDFF86CE2C3F814E08D
:10120000082803DDDFF864E2C3F818E00C2801DDEC
:10121000C3F81CC00F2940F3128110213AB10420F9
:10122000387100207871B871F871786818616FF3BF
:1012300000066FF341066FF382066FF3C5060423C1
:1012400063F38816C1F30A0363F353266FF31F5643
:10125000DFF80CA200233146504603F023FDCD46B3
:10126000834A022150460EF035FB824B01221A7050
:10127000814B1B78002B40F0E5807E4B1B78002BC8
:1012800040F0E280774BD3F808C0E94688B06B465F
:1012900013F110023FF468AF102182B1084604290F
:1012A00003DDDFF8C4E1C3F814E0082803DDDFF84C
:1012B000BCE1C3F818E00C2801DDC3F81CC00F29FD
:1012C0007FF755AF10213AB10420387100207871B2
:1012D000B871F871786818616FF300046FF3410416
:1012E0006FF382046FF3C504042363F38814C1F31E
:1012F0000A0363F353246FF31F5400232146584815
:1013000003F0D0FCCD46574BD3F80CC0E94688B06B
:101310006B4613F110023FF42DAF102182B1084645
:10132000042903DDDFF854E1C3F814E0082803DDE5
:10133000DFF838E1C3F818E00C2801DDC3F81CC061
:101340000F297FF71AAF10213AB10420387100201D
:101350007871B871F871786818616FF300056FF3F0
:1013600041056FF382056FF3C505042363F3881508
:10137000C1F30A0363F353256FF31F550023294676
:10138000374803F08FFCCD464FF0FF324FF0FF336C
:1013900034480AF0E1FF10F1100F3FF419AF10F1DB
:1013A0000B0F3DD0E94688B06B4613F110023DD0DB
:1013B00010218AB18C46042903DDDFF8C4E0C3F8AC
:1013C00014E0BCF1080F03DDDFF8A0E0C3F818E07B
:1013D000BCF10C0F00DDD8610F292ADD10213AB1D4
:1013E0000420387100207871B871F871786818613C
:1013F0006FF300086FF341086FF382086FF3C508BD
:10140000042363F38818C1F30A0363F353286FF3CB
:101410001F5800234146124803F044FCCD46DCE649
:10142000184A02210E480EF055FAD6E66FF0004138
:10143000BFE76FF01B01D2E76FF00041D8E66FF015
:101440001B01EBE6FFF7ACFD0F4A022104480EF04A
:1014500041FA0837BD46BDE8F08700BFBC5801001F
:10146000F4520100C816002074580100C859010048
:1014700070590100583B00204B3B00209858010058
:1014800034590100F85801009459010038B58368B7
:1014900005699C697CB112F4000F06D02D68012308
:1014A0008B401D4201D082F0C062044B134002F019
:1014B000B072A04738BD6FF05700FBE74000000650
:1014C000B0B582B000AF6C4688B06B4613F1100225
:1014D00037D00C2142B10846042901DD1C4D5D6165
:1014E000082801DD1B4898610B292DDD4FF00C0CFD
:1014F0003AB10321397100217971B971F9717868B4
:10150000186100216FF300016FF341016FF3820155
:101510006FF3C501042363F38811CCF30A0C6CF359
:1015200053216FF31F5100230B4803F0BBFBA5466B
:101530000A4B01221A700A480AF0CEFE0837BD464F
:10154000B0BD6FF00041C5E76FF01B0CD0E700BFE6
:10155000685A0100D45B0100A45201004C3B0020FA
:10156000E0160020B0B582B000AF6C4688B06B4684
:1015700013F1100237D00C2142B10846042901DDD5
:101580001C4D5D61082801DD1B4898610B292DDD8C
:101590004FF00C0C3AB10321397100217971B97106
:1015A000F9717868186100216FF300016FF3410150
:1015B0006FF382016FF3C501042363F38811CCF349
:1015C0000A0C6CF353216FF31F5100230B4803F0F7
:1015D00069FBA5460A4B01221A700A480AF07CFEF4
:1015E0000837BD46B0BD6FF00041C5E76FF01B0C7A
:1015F000D0E700BF805A0100C45B0100A452010083
:101600004D3B0020E0160020B0B582B000AF6C4624
:1016100088B06B4613F1100237D00C2142B1084656
:10162000042901DD1C4D5D61082801DD1B4898611E
:101630000B292DDD4FF00C0C3AB10321397100213B
:101640007971B971F9717868186100216FF300013F
:101650006FF341016FF382016FF3C501042363F35C
:101660008811CCF30A0C6CF353216FF31F51002344
:101670000B4803F017FBA5460A4B01221A700A48D3
:101680000AF02AFE0837BD46B0BD6FF00041C5E73D
:101690006FF01B0CD0E700BF985A0100B45B01004B
:1016A000A45201004E3B0020E0160020B0B582B0ED
:1016B00000AF6C4688B06B4613F1100237D00C2196
:1016C00042B10846042901DD1C4D5D61082801DD99
:1016D0001B4898610B292DDD4FF00C0C3AB103210A
:1016E000397100217971B971F97178681861002137
:1016F0006FF300016FF341016FF382016FF3C501D6
:10170000042363F38811CCF30A0C6CF353216FF3B9
:101710001F5100230B4803F0C5FAA5460A4B0122CE
:101720001A700A480AF0D8FD0837BD46B0BD6FF000
:101730000041C5E76FF01B0CD0E700BFB05A0100B5
:10174000A45B0100A45201004F3B0020E0160020E2
:10175000034B187800B9704700221A70FBE700BFEE
:101760004F3B0020034B187800B9704700221A70D5
:10177000FBE700BF4E3B0020034B187800B97047D1
:1017800000221A70FBE700BF4D3B0020034B187886
:1017900000B9704700221A70FBE700BF4C3B0020E5
:1017A000F0B583B000AF914B186812F0FEF898B313
:1017B0004FF480318D480CF0FDFD014600286CD0BF
:1017C0008A4B1A68166893F804C06D4601233B7172
:1017D00003237B718AB06C4614F1100226D01620C8
:1017E0004AB10346042803DDDFF804E2C4F814E03C
:1017F000082B00DDA16101233B7003237B701AB32A
:1018000003460C2800DDE661102B01DDC4F820C082
:1018100004F12403002115E00446764A01217648AC
:101820000EF058F820460C37BD46F0BD6FF0004072
:10183000D6E701F1080606EB070C1CF808CC03F804
:1018400001CB01310129F4D9152823DD162342B13A
:101850000521397100217971B9710121F971786817
:10186000206100216FF300016FF341016FF38201EA
:101870006FF3C501012060F38811C3F30A0363F31A
:1018800053216FF31F5100235B4803F00BFAAD4661
:101890000024C7E76FF01B03D9E7544B1868197988
:1018A0004FF0B862FFF7F2FD0146002862D04F4BBF
:1018B0001A68166893F804C06D4601233B71032330
:1018C0007B718AB06C4614F110021CD016204AB10C
:1018D0000346042803DDDFF824E1C4F814E0082BF4
:1018E00000DDA16101233B7003237B70CAB1034675
:1018F0000C2800DDE661102B01DDC4F820C004F1E6
:10190000240300210BE06FF00040E0E701F108063E
:1019100006EB070C1CF808CC03F801CB01310129B8
:10192000F4D9152823DD162342B105213971002190
:101930007971B9710121F9717868206100216FF323
:1019400000016FF341016FF382016FF3C5010120C4
:1019500060F38811C3F30A0363F353216FF31F513C
:101960000023254803F09EF9AD4600245AE76FF0A6
:101970001B03D9E71D4C2279012393402049214ABA
:101980004A608B6020680CF020FD23681E68217976
:101990006D4600233B7102237B718AB06C4614F1C3
:1019A00010021FD012201AB1042801DD164B63610A
:1019B00000233B7002237B7042B30346082800DDFE
:1019C000A6610C2B00DDE16104F120030021012957
:1019D0001CD801F108063E4416F8086C03F8016BA8
:1019E0000131F4E76FF00040DDE700BF3411002063
:1019F000E05A0100C85A0100A4520100085B01002E
:101A0000DC310020AD160000405B010011285BDDD9
:101A1000122342B10421397100217971B971012178
:101A2000F9717868206100216FF300016FF34101C3
:101A30006FF382016FF3C501032060F38811C3F3D4
:101A40000A0363F353216FF31F5100238C4803F003
:101A500029F9AD468B4B186811F0A7FF0446B0B3C7
:101A60004FF4803187480CF0A5FC014600286AD06D
:101A7000844B1A68166893F804C06D4601233B71C5
:101A800003237B718AB06C4614F1100225D0162016
:101A90004AB10346042803DDDFF8ECE1C4F814E0A2
:101AA000082B00DDA16101233B7003237B700AB387
:101AB00003460C2800DDE661102B01DDC4F820C0D0
:101AC00004F12403002113E06FF01B03A1E76F4A28
:101AD00001216B480DF0FEFEA4E66FF00040D7E751
:101AE00001F108063E4416F8086C03F8016B013159
:101AF0000129F5D9152823DD162342B105213971B5
:101B000000217971B9710121F97178682061002192
:101B10006FF300016FF341016FF382016FF3C501B1
:101B2000012060F38811C3F30A0363F353216FF3B9
:101B30001F510023524803F0B5F8AD46002471E66A
:101B40006FF01B03D9E74F4B186819794FF0B86253
:101B5000FFF79CFC0146002861D04A4B1A681668C2
:101B600093F804C06D4601233B7103237B718AB057
:101B70006C4614F110021CD016204AB1034604280A
:101B800003DDDFF80CE1C4F814E0082B00DDA161EF
:101B900001233B7003237B70C2B103460C2800DD98
:101BA000E661102B01DDC4F820C004F124030021FC
:101BB0000AE06FF00040E0E701F108063E4416F845
:101BC000086C03F8016B01310129F5D9152823DDD3
:101BD000162342B10521397100217971B9710121B2
:101BE000F9717868206100216FF300016FF3410102
:101BF0006FF382016FF3C501012060F38811C3F315
:101C00000A0363F353216FF31F5100231C4803F0B1
:101C100049F8AD46002405E66FF01B03D9E7194CDF
:101C20002279012393401B491B4A4A608B6020683C
:101C30000CF0CBFB23681E6821796D4600233B71B5
:101C400002237B718AB06C4614F1100215D0122069
:101C50001AB1042801DD114B636100233B7002239C
:101C60007B703AB30346082800DDA6610C2B00DD2B
:101C7000E16104F1200300211AE06FF00040E7E782
:101C8000A45201002C110020E05A01005C5B01000D
:101C9000085B0100D031002009160000405B010004
:101CA00001F108063E4416F8086C03F8016B013197
:101CB0000129F5D911285BDD122342B104213971C4
:101CC00000217971B9710121F971786820610021D1
:101CD0006FF300016FF341016FF382016FF3C501F0
:101CE000032060F38811C3F30A0363F353216FF3F6
:101CF0001F5100238C4802F0D5FFAD468B4B18686E
:101D000011F053FE0446B0B34FF4803187480CF015
:101D100051FB014600286AD0844B1A68D2F800C0F3
:101D20001E796D4601233B7103237B718AB06C469B
:101D300014F1100225D016204AB10346042803DD11
:101D4000DFF8ECE1C4F814E0082B00DDA161012309
:101D50003B7003237B700AB303460C2801DDC4F8F3
:101D60001CC0102B00DD266204F12403002113E0C7
:101D70006FF01B03A1E76F4A01216B480DF0AAFD2C
:101D800050E56FF00040D7E701F108063E4416F831
:101D9000086C03F8016B01310129F5D9152823DD01
:101DA000162342B10521397100217971B9710121E0
:101DB000F9717868206100216FF300016FF3410130
:101DC0006FF382016FF3C501012060F38811C3F343
:101DD0000A0363F353216FF31F510023524802F0AB
:101DE00061FFAD4600241DE56FF01B03D9E74F4BA3
:101DF000186819794FF0B862FFF748FB01460028D0
:101E000061D04A4B1A68D2F800C01E796D46012392
:101E10003B7103237B718AB06C4614F110021CD015
:101E200016204AB10346042803DDDFF80CE1C4F8AC
:101E300014E0082B00DDA16101233B7003237B70BC
:101E4000C2B103460C2801DDC4F81CC0102B00DD14
:101E5000266204F1240300210AE06FF00040E0E76D
:101E600001F108063E4416F8086C03F8016B0131D5
:101E70000129F5D9152823DD162342B10521397131
:101E800000217971B9710121F9717868206100210F
:101E90006FF300016FF341016FF382016FF3C5012E
:101EA000012060F38811C3F30A0363F353216FF336
:101EB0001F5100231C4802F0F5FEAD460024B1E49A
:101EC0006FF01B03D9E7194C2279012393401B497A
:101ED0001B4A4A608B6020680CF077FA23681E6802
:101EE00021796D4600233B7102237B718AB06C46D9
:101EF00014F1100215D012201AB1042801DD114B83
:101F0000636100233B7002237B703AB303460828C9
:101F100000DDA6610C2B00DDE16104F1200300214E
:101F20001AE06FF00040E7E7A452010024110020FE
:101F3000E05A0100745B0100085B0100C43100201D
:101F400065150000405B010001F108063E4416F8EB
:101F5000086C03F8016B01310129F5D911285BDD0B
:101F6000122342B10421397100217971B971012123
:101F7000F9717868206100216FF300016FF341016E
:101F80006FF382016FF3C501032060F38811C3F37F
:101F90000A0363F353216FF31F510023A84802F093
:101FA00081FEAD46A74B186811F0FFFC0446B0B3A4
:101FB0004FF48031A3480CF0FDF9064600286CD0A0
:101FC000A04B1A68D2F800C018796D4601233B7106
:101FD00003237B718AB06B4613F1100226D01621C1
:101FE0004AB10C46042903DDDFF85CE2C3F814E0D3
:101FF000082C00DD9E6101243C7003247C7012B328
:102000000C460C2901DDC3F81CC0102C00DD186241
:1020100003F12400002414E06FF01B03A1E78B4AB6
:10202000012187480DF056FCFFF7FCBB6FF0004123
:10203000D6E704F108063E4416F8086C00F8016B78
:102040000134012CF5D9152924DD162442B10521CE
:10205000397100217971B9710121F97178681861BC
:1020600000216FF300016FF341016FF382016FF301
:10207000C501012363F38811C4F30A0464F35321F7
:102080006FF31F5100236E4802F00CFEAD46002492
:10209000FFF7C8BB6FF01B04D8E76A4B18681979C3
:1020A0004FF0B862FFF7F2F90546002861D0654BA2
:1020B0001A68166818796C4601233B7103237B71FB
:1020C0008AB06B4613F110021CD0162152B18C4617
:1020D000042903DDDFF878E1C3F814E0BCF1080F50
:1020E00000DD9D6101253D7003257D70BAB10D466F
:1020F0000C2900DDDE61102D00DD186203F12400E3
:1021000000250AE06FF00041E0E705F108063E44D3
:1021100016F8086C00F8016B0135012DF5D9152969
:1021200024DD162542B10521397100217971B9717B
:102130000121F9717868186100216FF300016FF3D4
:1021400041016FF382016FF3C501012363F388112D
:10215000C5F30A0565F353216FF31F510023384877
:1021600002F0A0FDA5460024FFF75CBB6FF01B0545
:10217000D8E7344D2A79012393403649364A4A60DC
:102180008B6028680CF021F92B68D3F800C02979FE
:102190006D4600233B7102237B718AB06B4613F1BD
:1021A000100216D012201AB1042801DD2B4E5E61F8
:1021B00000263E7002267E70C2B10646082801DD68
:1021C000C3F818C00C2E00DDD96103F120010026F0
:1021D0000AE06FF00040E6E706F1080CBC441CF88A
:1021E00008CC01F801CB0136012EF5D9112823DDE9
:1021F000122642B10421397100217971B97101218E
:10220000F9717868186100216FF300016FF34101E3
:102210006FF382016FF3C501032363F38811C6F3E3
:102220000A0666F353216FF31F510023044802F09E
:1022300039FDAD46FFF7F6BA6FF01B06D9E700BFD0
:10224000A45201001C110020E05A01008C5B010027
:10225000085B0100B8310020C1140000405B0100A0
:1022600038B5836805699C697CB112F4000F06D00B
:102270002D6801238B401D4201D082F0C062044BC7
:10228000134002F0B072A04738BD6FF05700FBE773
:102290004000000608B5044B197918680CF0DEF808
:1022A000003818BF012008BD3C11002008B540F2DD
:1022B000AA32002301480AF001FA08BDC01000202C
:1022C00008B50D4B197918680CF0C8F850B90B4ACD
:1022D00002210B480DF0FEFA0022002309480AF003
:1022E0003BF808BD084A032105480DF0F3FA0548FC
:1022F00009F0F2FFF5E700BF3C110020EC5B0100A4
:102300005453010098160020005C010008B504F049
:1023100091FA18B1034610F1100F01D1002008BD49
:10232000024A012102480DF0DFFAF7E7145C0100D0
:1023300054530100F0B583B000AFA74B1B7823B90D
:10234000012420460C37BD46F0BDA44B186811F09F
:102350002CFB0446002857D1A04B1B6819686D461A
:1023600000233B7102237B7188B0EC461CF1100204
:1023700013D00E2022B1042802DD994BCCF8143082
:1023800000233B7002237B70AAB1082801DDCCF842
:1023900018100CF11C0300210BE06FF00040E9E77E
:1023A00001F1080606EB070E1EF808EC03F801EB36
:1023B00001310129F4D90D2823DD0E234AB103216F
:1023C000397100217971B9710121F9717868CCF8FE
:1023D000100000216FF300016FF341016FF38201E0
:1023E0006FF3C501012060F38811C3F30A0363F39F
:1023F00053216FF31F5100237A4802F053FCAD467E
:102400009FE76FF01B03D9E74FF4803173480CF05E
:102410000EF800281DDB714B186819794FF0C06267
:10242000FFF71EFF002875DB6C4D2A7901239340CE
:102430006D496E4A4A608B6028680CF01FF8664B45
:1024400000221A702B796A4A032166480DF04CFA73
:1024500077E7624B1A68166819796D4600233B715D
:1024600002237B718AB06C4614F1100225D04FF024
:10247000160C22B1BCF1040F01DD5E4B6361002339
:102480003B7002237B70DAB16346BCF1080F00DDBC
:10249000A6610C2B00DDE161102B00DD206204F150
:1024A0002403002101290BD801F10800384410F859
:1024B000080C03F8010B0131F4E76FF0004CD8E78A
:1024C000BCF1150F23DD162342B10521397100211E
:1024D0007971B9710121F9717868206100216FF378
:1024E00000016FF341016FF382016FF3C501012019
:1024F00060F38811C3F30A0363F353216FF31F5191
:102500000023384802F0CEFBAD46002419E76FF0F7
:102510001B03D9E7314B1A68166819796D460023F9
:102520003B7102237B718AB06C4614F110021BD000
:102530004FF0160C22B1BCF1040F01DD2E4B63618C
:1025400000233B7002237B70DAB16346BCF1080FB5
:1025500000DDA6610C2B00DDE161102B00DD2062A7
:1025600004F1240300210AE06FF0004CE2E701F1DE
:102570000800384410F8080C03F8010B0131012958
:10258000F5D9BCF1150F23DD162342B105213971B0
:1025900000217971B9710121F971786820610021F8
:1025A0006FF300016FF341016FF382016FF3C50117
:1025B000012060F38811C3F30A0363F353216FF31F
:1025C0001F510023074802F06DFBAD460024B8E61A
:1025D0006FF01B03D9E700BF911500203C110020CC
:1025E000F455010054530100FC310020AD220000DD
:1025F0002856010004560100345C010008B5FFF7BD
:1026000099FE30B1084A032108480DF063F9002013
:1026100008BD6FF00403064A022104480DF064F976
:102620006FF00400F4E700BF645C01005453010044
:102630008C5C010010B582B0194C20460DF0BAFA3E
:102640000346184A032118480DF04EF920460DF0B4
:102650008CFAD8B901AA0121114802F06BFF044697
:1026600068B96A4602210E4802F064FF0446A0B130
:1026700003460E4A01210C480DF036F90DE00346E1
:102680000B4A012108480DF02FF906E004460346E5
:10269000084A012104480DF027F9204602B010BD78
:1026A000BC5C0100C05C010054530100D05C01001F
:1026B000F85C0100205D010010B504F01DFC074826
:1026C0000BF0E6FE044608B9204610BD0346044A56
:1026D000012104480DF008F9F6E700BF2C4901007C
:1026E000405D0100545301002DE9F04184B000AF7A
:1026F00080460023BB60FB60014607F1080004F040
:1027000067F9002800F0DC8006466C4600233B7128
:1027100002237B718AB06D4615F1100216D012208B
:102720001AB1042801DD8D4B6B6100233B7002233D
:102730007B70C2B10346082801DDC5F818800C2B58
:1027400000DDEE6105F1200300210AE06FF000409A
:10275000E6E701F1100CBC441CF810CC03F801CBE7
:1027600001310129F5D9112822DD122342B10421BA
:10277000397100217971B9710121F9717868286185
:1027800000216FF300016FF341016FF382016FF3DA
:10279000C501012060F38811C3F30A0363F35321D9
:1027A0006FF31F5100236E4802F07CFAA546CFE07C
:1027B0006FF01B03DAE76E4600233B7102237B7147
:1027C00088B0694611F1100232D04FF00E0C22B1E0
:1027D000BCF1040F01DD634B4B6100233B7002230E
:1027E0007B7042BBBCF10D0F39DD0E2342B10320DB
:1027F000387100207871B8710120F871786808612B
:102800006FF300056FF341056FF382056FF3C505A4
:10281000032161F38815C3F30A0363F353256FF3B0
:102820001F55002329464E4802F03CFAB54647E0C2
:102830006FF0004CCBE7BCF1080F01DD4A4B8B6118
:1028400001F11C03002007E000F1100EBE441EF849
:1028500010EC03F801EB01300128F5D9C2E76FF065
:102860001B03C3E76FF0004C49E000233B700223D9
:102870007B70002A4BD1BCF1110F62DD122342B1F3
:102880000420387100207871B8710120F8717868DF
:1028900008616FF300046FF341046FF382046FF378
:1028A000C504032161F38814C3F30A0363F35324BB
:1028B0006FF31F5400232146294802F0F3F9B5466F
:1028C0002A4907F1080004F0F3F8064600283BD136
:1028D000264B5B78002B37D0244B1B78012B3FF421
:1028E0006AAF224B18696E4600233B7102237B714D
:1028F0008AB0694611F11002B4D04FF0120C002AD0
:10290000B3D0BCF1040FB0DD194B4B61ADE76346AA
:10291000BCF1080F03DDDFF850E0C1F818E00C2B24
:1029200000DDC86101F12003002007E000F1100E76
:10293000BE441EF810EC03F801EB01300128F5D974
:1029400099E76FF01B039AE707F1080004F02CF9F0
:1029500030461037BD46BDE8F08100BF705D010014
:10296000545301008C5D0100E9310020E831002062
:10297000985D0100F0B587B004460F4616464368DF
:1029800002A9D86804F074F9054668B9039AB6FB41
:10299000F2F20132059B934209D332463946204672
:1029A00003F0FAFF051E0BDB284607B0F0BD0092CE
:1029B000074A012107480CF0A2FF6FF00B05F3E76F
:1029C0002B46054A012103480CF08EFFECE700BFBF
:1029D000B05D010054530100F85D0100B0B588B04E
:1029E00000AF044607F10C0104F0FEF8002803DBF9
:1029F00001202037BD46B0BD6D4600233B72022347
:102A00007B728AB0EC461CF110021BD04FF0120E04
:102A10002AB1BEF1040F02DD264BCCF8143000239E
:102A20003B7102237B71D2B17346BEF1080F01DD09
:102A3000CCF818400C2B01DDCCF81C000CF1200365
:102A400000210AE06FF0004EE2E701F12000384477
:102A500010F81C0C03F8010B01310129F5D9BEF166
:102A6000110F24DD12234AB1042139720021797239
:102A7000B9720121F972B868CCF8100000216FF327
:102A800000016FF341016FF382016FF3C501012073
:102A900060F38811C3F30A0363F353216FF31F51EB
:102AA0000023054802F0FEF8AD460020A1E76FF0D4
:102AB0001B03D8E71C5E010054530100B0B586B07B
:102AC00000AF0C4607F10801204604F0D1F8031EC0
:102AD00003DB01201837BD46B0BD13F1020F54D1FE
:102AE0006D4600233B7102237B7188B0EC461CF1DC
:102AF00010021DD00E2022B1042802DD264BCCF896
:102B0000143000233B7002237B70A2B1082801DD42
:102B1000CCF818400CF11C03002101290BD801F15D
:102B200018043C4414F8184C03F8014B0131F4E745
:102B30006FF00040DFE70D2824DD0E234AB10321AA
:102B4000397100217971B9710121F9717868CCF876
:102B5000100000216FF300016FF341016FF3820158
:102B60006FF3C501022060F38811C3F30A0363F316
:102B700053216FF31F510023084802F093F8AD462C
:102B80000020A7E76FF01B03D8E7054A012103489F
:102B90000CF0AAFEF4E700BF305E010054530100C0
:102BA000445E010010B504460D4B1968FFF786FF1F
:102BB00088B90C4B00221A70216920460BF0B8FC32
:102BC000094809F089FB094A022109480CF082FEF4
:102BD000FEF7E6F910BD2046FFF76EFDE9E700BFFE
:102BE00048110020503B0020F8160020585E0100DC
:102BF000545301002DE9F0418CB000AF0546A94BBC
:102C000000221A704FF0FF324FF0FF33A64809F050
:102C1000A3FB03E04FF4FA600BF05CFCA34B1B78C2
:102C200063B9A34B1B78002BF4D0A24A0221A2481F
:102C30000CF050FE3037BD46BDE8F0819F4A0321BD
:102C40009D480CF047FE9E4B1868FFF7D7FC0346E3
:102C500080B99C480BF087FC0024FC613C627C62DC
:102C6000BC62FC62984B1A68984907F11C000BF093
:102C7000CFF93AE0964A01218F480CF035FED9E7AA
:102C8000944A03218C480CF025FE444604E0924A05
:102C9000022189480CF01EFE40F6C4100BF01AFC0D
:102CA00023E0FFF7F7FA002800F0A780804B1B789D
:102CB000002B30D0894A0023894809F04DFBFEF7EC
:102CC00047FD002840F0A380FEF74CFD002840F0AF
:102CD000A880FEF751FD002840F0B480FEF756FDB5
:102CE000734B1B78002B40F0D380002CD9D1704B54
:102CF0001B78002BD5D1FFF7CDFA80460028C6D02F
:102D0000FFF798FC03460028BAD0764A01216A48AA
:102D10000CF0EAFDC0E76C4B19682846FFF7CEFEC1
:102D200080460028C6D1684B196828460BF016FC6F
:102D30000346002841D1644B1868E84600233B72E3
:102D400002237B7288B0694611F110023CD04FF02B
:102D50000E0C22B1BCF1040F01DD634B4B6100236B
:102D60003B7102237B7192BBBCF10D0F42DD0E2340
:102D700042B10320387200207872B8720120F872D4
:102D8000B86808616FF300066FF341066FF38206BF
:102D90006FF3C506032161F38816C3F30A0363F3D7
:102DA00053266FF31F5600233146434801F07AFF44
:102DB000C5463C4B01221A707CE74C4A01213E4833
:102DC0000CF092FD444675E76FF0004CC1E7BCF192
:102DD000080F00DD886101F11C03002007E000F10D
:102DE000300EBE441EF82CEC03F801EB0130012834
:102DF000F5D9B9E76FF01B03BAE73D4A02212E4827
:102E00000CF068FD01212846FFF7CCFE12E7394A95
:102E1000032129480CF05EFD2B4B1868FFF764FC7A
:102E200052E707F11C00FFF7D9FD28B1324A032110
:102E300021480CF04FFD4CE7304A02211E480CF0AF
:102E400049FD46E7332207F11C011E48FFF75EFAF1
:102E500000287FF443AF2A4A032117480CF03AFDBB
:102E600007F1080CDFF89CE0BEE80F00ACE80F00AB
:102E7000DEF80030CCF80030DFF84880132207F18C
:102E800008014046FFF776FD40460BF071FB25E751
:102E9000054809F021FA1C4A022107480CF01AFDE6
:102EA000C8E600BF503B0020F81600204B3B002036
:102EB000583B00208C5E010054530100C85E0100A5
:102EC000441100200832002048110020F05E01006B
:102ED000DC5E0100145F0100345F01002D31010050
:102EE000E0160020FC5E0100605F01004C5F010005
:102EF000705F01008C5F0100B05F0100C45F0100E2
:102F0000E85F010008600100585E01002DE9F04F04
:102F100091B005920293134602F004020092C3F3AB
:102F2000C20210F00303019340F02B8280468A46D0
:102F30000132041D00284FD0B8F1000F05D0A4EBDA
:102F400008030433534500F21F82029B5D1E019B60
:102F500004930693039300264FF0FF3B0427B946E2
:102F6000B8F1000F01D0029B2360531E0793002A83
:102F700040F35D81059B13F0020228D00120A4EBF1
:102F800008018B081AB1B1F5007F80F00382039924
:102F90000F2900F20282B8F1000F00F06081DBB26D
:102FA00001F140026A4402F8103C02F820BC0028FB
:102FB00000F0518163F07F0301F140026A4402F89E
:102FC000103C049B01330493039B013303930434AB
:102FD0000022CC4640463DE001F0070A5444CAF1C5
:102FE000080AA9E7002634E0002632E0002630E097
:102FF0000827BC462DE025292BD10BF1010B01261A
:103000000427BC4625E04729EED82A2914D32A39BB
:10301000C9B24FF0010E0EFA01F14FF6DA7E11EA55
:103020000E0F16D111F0625F40F0C08011F0010F59
:1030300040F08C8000260CE0252903D10BF1FF3BEA
:10304000002606E001D9002603E0202901D023292B
:10305000CCD11D466B1C6978002900F01981002E27
:10306000C9D07A29BED84C29CDD34C392E2961D864
:103070000FF2040E5EF821F05330000035310000ED
:1030800035310000353100003531000035310000A8
:103090003531000035310000353100003531000098
:1030A0003531000035310000453100003531000078
:1030B0003531000035310000353100003531000078
:1030C000353100003531000035310000AD310000F0
:1030D000353100004531000045310000AD310000C0
:1030E000AD310000AD31000053300000453100002B
:1030F000F12F000035310000533000003531000061
:10310000093200004531000009320000353100006D
:1031100035310000113200003F3100004531000020
:1031200035310000353100004531000035310000F7
:103130003931000000268CE70427BC4689E70427C4
:10314000BC4686E729786C2924D000263C44013C03
:10315000B4FBF7F407FB04F420B1211A6144514594
:1031600000F21581002A58D1BCF1040F00F08880CC
:10317000BCF1080F40F014811A99073121F00701C2
:1031800001F108051A95D1E9008908B1C4E900895F
:1031900008345EE713F8021C6C2903D000260427CC
:1031A000BC46D3E700260827BC46CFE729784C2940
:1031B0001AD01A99073121F0070101F108061A9671
:1031C000D1E90067073424F0070440B1211A08311F
:1031D000514513D829784C2913D0C4E90067083425
:1031E00000260827BC4634E71A99073121F0070169
:1031F00001F108061A96D1E90067E3E76FF01B00BA
:10320000BCE0C4E90067EAE700260427BC469DE766
:10321000324600260427BC4698E7E14680461A9AC3
:10322000111D1A9112680292079A1D4698E6624B88
:10323000029A9A4204D3614B9A420AD3002300E0D7
:103240000023002B7FF496AE059B03F002020020C2
:1032500095E60123F5E7069B01330693B4E610B12A
:103260000AF1010AB0E6009B13B10AF1020AABE6CB
:103270000298FDF727F90AEB000303F1020AA3E61F
:103280001A990D1D1A95096800B121600434E0E611
:103290008046231AB3F5806F80F0858090B10022BC
:1032A00002609B080370009B83B1069BC370049B64
:1032B00088F802301BBB019DDDF80C90DDF810B0E2
:1032C000029F3DE05344A3F1080057E0069B437082
:1032D000EDE701339842EED903F140026A4412F857
:1032E000101C12F9102C002AF3DA01F07F01A4EB74
:1032F00008020132524559D804F8011BE9E7019B45
:103300000398E7E7009B43B305F140036B4413F8D0
:10331000203C04F8013B019EA4EB08033344013335
:10332000534546D805F140036B4413F8103C04F8AC
:10333000013B32463946204611F0D2F8344401357B
:10334000A94519D9BBF1000FDCD005F140036B444E
:1033500013F9103C002BD5DAF1E705F140036B447B
:1033600013F8103C58F82370002248F82320384600
:10337000FDF7A8F8461CCFE7A4EB080011B0BDE8A4
:10338000F08F6FF00D00F9E76FF01B00F6E76FF0BC
:103390001B00F3E76FF01500F0E76FF01500EDE7A5
:1033A0006FF01500EAE76FF01500E7E76FF01B001C
:1033B000E4E76FF01B00E1E7E4470100748C0100D3
:1033C0002DE9F04F97B000AF8346BA613B61D7F863
:1033D0008030C3F3C0033B62F96011B90BF018FAF7
:1033E000F8609BF80260B14636B1D7F8803013F030
:1033F000010F0DD1002300E000239BF803207A6227
:1034000042B1D7F8802012F0020F22D1002202E050
:103410000123F2E7002202B9EBB19BF80050AA00A9
:10342000BA60DBF804207A610BEB8505BA69F2B16A
:10343000002B40F00481B9F1000F00F00F81D7F8A4
:10344000803013F0040F40F00D810020F861064633
:10345000F9E00122DFE7BB691BB13A69F968584618
:103460009847FC6820465C37BD46BDE8F08FFC6895
:10347000E3B94D4400233B6123E0044401350136A8
:103480004E451AD22A7800235BF822201946B869E3
:103490000BF0D3F9BAF1000FEFD0D7F88830984588
:1034A000EBD22AF8180008F10108E6E70026C7F871
:1034B0001C80B046D7F884A0E2E7C7F81080D7F8A0
:1034C0001C80D7F8803003F00503FB604FF0000A42
:1034D000A146C7F81CB09CE000253B6A7BB9002DD3
:1034E00079D0D7F8803013F0010F79D1FB68002B29
:1034F0006FD10223A9EB030988E00125EDE75946C6
:1035000078690BF0E0F90028E9D06C46002387F8D1
:103510002C30022387F82D308AB0694611F1100251
:1035200037D012251AB1042D01DDB34B4B610023B6
:1035300087F82830022387F829306ABB112D45DD32
:10354000122362B1042087F82C00002087F82D0098
:1035500087F82E00012087F82F00F86A08616FF3C2
:1035600000086FF341086FF382086FF3C50802216A
:1035700061F38818C3F30A0363F353286FF31F58EA
:10358000002341469D4801F08DFBA546A9F10209A3
:103590003CE06FF00045C5E72B46082D01DD78695A
:1035A00088610C2B01DDC1F81CB001F12003002063
:1035B00009E000F1300C07F1280EF4441CF830CC7F
:1035C00003F801CB01300128F3D9B7E76FF01B03F3
:1035D000B7E701238EE7D7F8803013F0020F15D03C
:1035E000002322461946B8690BF027F9D7F8843032
:1035F00053B13B69D7F88820934205D2D7F884208D
:1036000022F8130001333B61013881440AF1010AB9
:1036100035467B6A9A4510D22E4616F802BB6B7867
:10362000FA6952F82340764B9C42FFF455AF754B34
:103630009C42FFF462AF00254FE74C4612E707F1CA
:1036400044000023FB6118B14A46294610F048FFA8
:103650004D444FF00008C7F804901EE00020F861C8
:103660000646F0E7FE6107F134000026EBE700258F
:103670003B6A33BB002D3BD0D7F8803013F0010FED
:1036800026D0731C06F1300207F12801561806F8FF
:10369000149CDEB208F1010825467B6A98454AD29F
:1036A0002C4614F802AB95F801905BF82930544A87
:1036B0009342DCD3534A934201D30025D8E7012536
:1036C000D6E7514678690BF0FEF80028D2D0E1E742
:1036D000D7F8803013F0040FDCD0FA69531C303275
:1036E00007F128010A4402F8249CDBB2FB61D1E710
:1036F000D7F8803013F0020F09D0731C06F13002A6
:1037000007F12801561806F8149CDEB2C2E7F869E2
:10371000431C00F1300107F128028A1802F824AC9A
:1037200002460232D2B2FA6107F1580252FA83F32A
:1037300003F8249CAEE7D7F804909BF8003087F894
:1037400054309BF80130334487F85530D7F8803037
:1037500013F0020F0ED1FB69C3F3470387F857300C
:10376000D7F8803013F0010F06D113F0040F3ED1CB
:10377000002302E00023F1E7002387F85630DBF84E
:1037800000003863786DCBF80000D7F8108042460F
:10379000B9685846D7F818A0D047041EFFF662AEA5
:1037A000386BCBF80000C7F810804246F96907F182
:1037B0003400D04700285EDB04EB0008B9684944B8
:1037C0007B6A01EB4301D7F810904A46FB68591A0F
:1037D0002846D047041EFFF645AE08EB04054FF01F
:1037E0000008C7F824B0B3465446CA4621E0FB6936
:1037F000C3E74FF0000909E034600100B452010052
:10380000E4470100748C01004FF000095246012189
:1038100007F12C00A04700282FDB05444B46324619
:10382000514620460BF009F8002828DB054408F132
:103830000108D84518D208F1300307F128021344D3
:1038400013F8143C87F82C307A6A52F82360D7F8C2
:103850008430002BCDD0D7F888309845D4D2D7F813
:10386000843033F81890D1E73A6900210846BB69E3
:1038700098472C46F6E50446F4E50446F2E504468E
:10388000F0E500BF014B1860704700BF4C110020ED
:1038900010B586B004460390049100210591009173
:1038A00003A9064800F0D8FA059B049A934201DA6E
:1038B0000022E254059806B010BD00BF19E90000CF
:1038C00084460268002006E000EB8000013203EB32
:1038D0004003A3F1300013780349C95C11F0040FD1
:1038E000F2D1CCF800207047418B01008446084695
:1038F000012226E09CF8003043F004038CF80030ED
:10390000F2B101301CE09CF8003043F008038CF861
:103910000030F5E79CF8003043F010038CF80030DD
:10392000EEE79CF8003043F020038CF80030E7E726
:103930009CF8003043F040038CF80030E0E70022B0
:1039400042B30378203B102BF9D801A151F823F0A2
:10395000153900003F3900003F39000023390000CD
:103960003F3900003F3900003F3900003F39000077
:103970003F3900003F3900003F390000073900009F
:103980003F390000F53800003F3900003F390000A2
:10399000313900009CF8003003F04403442B00D080
:1039A00070479CF800306FF386138CF80030F7E70F
:1039B0002DE9F84F05460C46934699460A9ED07865
:1039C000254B13F800A00AF0030A0BF0D3F90746C1
:1039D00014E0BAF1010F20D0D2B25732D2B2327015
:1039E0003A46434628462146FCF748FDBD4274F15D
:1039F000000416D34E4514D905460C464FF0000876
:103A00003A46434628462146FCF738FD013E092A3E
:103A1000DFD8D2B23032D2B2E1E7D2B23732D2B24C
:103A2000DDE79BF8003013F0200F03D0082F04D0FF
:103A3000102F09D03046BDE8F88F9BF8023043F0D4
:103A400008038BF80230F5E79BF8023043F01003CF
:103A50008BF80230EEE700BF418B01002DE9F04FFB
:103A600087B017461E46DDF8449002460B1E07DB62
:103A7000397811F0080F14D02B211098017002E052
:103A80002D211098017097F80380C3F30A54C3F3F3
:103A90001303049205935CB952EA030126D1002175
:103AA00007E011F0100FEED0202110980170EAE726
:103AB000002140F2FF7084421AD0B8F1460F5BD06B
:103AC000DB0243EA5253D20204920593104623F0DC
:103AD00000430593224343EAE4752A435ED000295C
:103AE00056D000185B41049005934DE00121E0E7BA
:103AF000134324D19F4B13F8083003F00303012B29
:103B000011D0692389F800306E2389F801306623CB
:103B100089F8023009F103023B786FF386133B709A
:103B2000129B1A6081E1492389F800304E2389F8FD
:103B30000130462389F8023009F10302ECE78D4B8E
:103B400013F8083003F00303012B0AD06E2389F821
:103B50000030612289F8012089F8023009F103025E
:103B6000DAE74E2389F80030412289F8012089F8EC
:103B7000023009F10302CFE74FF06608A0E7013CED
:103B8000DB18524104930592049B059A002AF6DA49
:103B9000A4F2FE34059B43F000430593002517E093
:103BA000059B049A520842EAC3725B08049205938B
:103BB00021460134B3F1333FF2D29C0044EA9274BF
:103BC0009000801843EB0403049005938C1C013D86
:103BD00014F1020FE4DB14E0049B0233059A42F176
:103BE00000020493059204A80BF07EF8013C013515
:103BF0000499059B49185B4104910593013C002BF6
:103C0000F6DA002CE8DCC4F10401059A1C34A1F1B9
:103C10002000049BCB4002FA04F4234322FA00F074
:103C20000343CA4004930592B8F1670F13D0B8F16B
:103C3000470F10D04FF0000BB8F1660F29D0741C5D
:103C4000102303939C4200DD1C4600224FF00063CA
:103C5000CDE9002327E015F1030F01DBB54211DDAB
:103C6000A8F102085FFA88F8002E00DD013E3B78DB
:103C7000C3F3401B13F0200F08D1002EDCDD4FF002
:103C8000010BD9E7761B4FF06608F0E74FF0000B09
:103C9000D2E7AC19D4D5102303930024D5E76846A6
:103CA0000BF03EF8544604F1FF3A002CF7D1049B88
:103CB000009A9B18059A019942EB01020493059220
:103CC0004FF0FF3199426FF07043934106D3B8F142
:103CD000660F38D1002D31DDCA460BE004A80BF089
:103CE0001FF80135F3E703A904A80BF025F80AF83B
:103CF000010B013D002D02DD039B002BF3DC7D60F9
:103D000025463B7813F0200F01D1002E02DD2E2333
:103D10000AF8013B002D36DA002E34DD6B427B6061
:103D20009E4200DA7E607B68F61A002BD4BF002327
:103D30000123BA7863F34512BA7024E0CA463023EF
:103D40000AF8013BDDE703A904A80AF0F5FFCA461B
:103D50000AF8010B302800D0013D3B7813F0200F0A
:103D600001D1002E0FDD2E2389F8013009F1020A5E
:103D700009E000BF418B010003A904A80AF0DCFFA1
:103D80000AF8010B013E002E02DD039B002BF3DC41
:103D9000BE60BBF1000F09D00023BB6053469A46BA
:103DA00013F8012D302AFAD02E2A42D0B8F1650F2F
:103DB00002D0B8F1450F2AD18AF80080002D3ADBF5
:103DC0002B238AF801300AF1020A632D0CDD204A08
:103DD00082FB0532EB17C3EB621303F130020AF8E2
:103DE000012B642202FB13551A4A82FB0532EB17A2
:103DF000C3EBA20303F130028AF8002003EB830334
:103E0000A5EB430330338AF801300AF1020A7B68DC
:103E1000002B17DD0124BB7864F38613BB70129B63
:103E2000C3F800A000238AF80030484607B0BDE878
:103E3000F08F9A46BAE76D422D238AF801300AF1D5
:103E4000020AC2E7BB68002BE5DD0124E3E700BFFF
:103E50001F85EB51676666662DE9F04F97B0064601
:103E60000D4690460593002498F80000002800F0C5
:103E70004883252808D02946B0470028C0F242834D
:103E8000013408F10108EFE70023089309930A932E
:103E90000B930C930D930DF1550207928DF81B3087
:103EA00041460AA80AF0FEFE81469DF8293013F02B
:103EB000010F00F09E80059B1A1D05921F68002FC0
:103EC000C0F28F809DF8293013F0040F00F0A3801A
:103ED000059B1A1D0592D3F800A0BAF1000FC0F29D
:103EE000918000230B930C939DF82A3003F0070375
:103EF000042B00F099809DF82A3003F007039DF809
:103F00002910C1F3C301012B00F09E80022B00F0A9
:103F1000E380042B00F03481032B00F04B819DF8EB
:103F2000282012F0030F40F04B819DF82B30253BE9
:103F3000532B00F2FD81DFE813F04F01FB01FB0181
:103F4000FB01FB01FB01FB01FB01FB01FB01FB0191
:103F5000FB01FB01FB01FB01FB01FB01FB01FB0181
:103F6000FB01FB01FB01FB01FB01FB01FB01FB0171
:103F7000FB01FD01FB01FB01FB01FD01FD01FD0159
:103F8000FB01FB01FB01FB01FB01FB01FB01FB0151
:103F9000FB01FB01FB01FB01FB01FB01FB01FB0141
:103FA000CA01FB01FB01FB01FB01FB01FB01FB0162
:103FB000FB01FD01FB01B501BE01FD01FD01FD019C
:103FC000FB01BE01FB01FB01FB01FB01F601CA0184
:103FD0009C01FB01FB015701FB01CA01FB01FB0135
:103FE000CA019DF8283043F004038DF828307F4241
:103FF00068E79DF92830002B02DB4FF0FF3761E7BF
:104000000B9F5FE79DF829306FF341038DF829304E
:104010004FF0FF3A65E713F0020F02D0DDF830A051
:104020005FE74FF0FF3A5CE79DF8293013F0020F8D
:104030007FF461AF9DF92930002B02DB4FF0060AB7
:1040400059E74FF00D0A56E7CB1E042B04D8DFE8E2
:1040500003F00B1D29353500059B1A1D05921B68C1
:10406000DA170893099206E0059B1A1D05921B6852
:10407000DA1708930992012928D002297FF44FAF5B
:10408000BDF92030DA170893099248E7059B0733FA
:1040900023F0070303F108020592D3E90023CDE9D9
:1040A0000823E8E7059B073323F0070303F1080221
:1040B0000592D3E90023CDE90823DCE7059B1A1D0F
:1040C00005921B68DA1708930992D4E79DF920300E
:1040D000DA170893099222E7CB1E042B04D8DFE8F5
:1040E00003F00B1F35414100059B1A1D05921B680B
:1040F0000893002309931EE09DF82B30632B07D013
:10410000059B1A1D05921B6808930023099312E072
:10411000059B1A1D05921B680893002309930AE06A
:10412000059B073323F0070303F108020592D3E947
:104130000023CDE9082301291CD002297FF4EFAE2A
:10414000BDF82030089300230993E8E6059B073368
:1041500023F0070303F108020592D3E90023CDE918
:104160000823E8E7059B1A1D05921B6808930023A6
:104170000993E0E79DF82030089300230993CEE6E9
:1041800008290BD0059B073323F0070303F108022E
:104190000592D3E90023CDE90823C0E6059B073348
:1041A00023F0070303F108020592D3E90023CDE9C8
:1041B0000823B4E6059B1A1D05921B680893AEE61A
:1041C0004B464246294630460AF008FE0028C0F217
:1041D00099810444C84647E629462520B04700286F
:1041E000C0F290810134A3E0DDF82080BAF1000F25
:1041F0003ADA4046FCF766F940440790B8F1000F00
:1042000000F09680079BA3EB08039DF81B0000B10C
:1042100001339DF82A1011F0100F00F09A8002333C
:104220000B9A134411F0400F01D00C9A1344002F45
:1042300040F3A780FF1A9DF8283013F0040F40F0D8
:10424000A08013F0400F00F09580002800F09580CA
:104250002946B0470028C0F25581013400238DF86B
:104260001B304FF0300A8AE05146404610F0F9F911
:10427000C2E7089820B9A54B0793A3F10508C1E749
:10428000079B00930FAB0AAA0021FFF791FB804622
:104290009DF82A3043F010038DF82A3078238DF8EA
:1042A0002B301DE0089B8DF83C300DF13D0307934A
:1042B0000DF13C08A6E712F0080F24D02B238DF84F
:1042C0001B30089A099B002B24DB08920993079B5B
:1042D00000930FAB0AAADDE90801FFF769FB8046EE
:1042E000BAF1000F8ADB079BA3EB08039DF8282097
:1042F0006FF386128DF828209A457FF67FAFAAEBE0
:1043000003030B937AE712F0100FDAD020238DF815
:104310001B30D6E72D218DF81B10524263EB43036F
:1043200008920993D3E7224608990AA80AF037FDB4
:10433000C84699E507AB02930FAB01930DF11B0340
:10434000009353460AAADDE90801FFF787FB804680
:1043500054E711F0080F3FF463AF013360E7013415
:104360003B465F1E002B0CDD29465046B047002817
:10437000F5DAC7E04FF0200A01E04FF0300A3B4683
:10438000EFE79DF81B0028B12946B0470028C0F28E
:10439000B98001349DF82A3013F0400F74D09DF994
:1043A0002930002B0FDB98F80000594B1B5C13F0F1
:1043B000040F15D02946B0470028C0F2A38001346D
:1043C00008F10108EFE798F80000702845D0294669
:1043D000B0470028C0F29680013408F10108F2E7E6
:1043E000DDF82CA09DF82A3013F0200F12D098F899
:1043F00000002E281DD098F80000454B1B5C13F0E0
:10440000040F2AD02946B04700287BDB013408F18D
:104410000108F0E70AF1FF3BBAF1000F07DD29467A
:104420003020B04700286DDB0134DA46F2E7DA4687
:10443000DDE72946B047002864DB013408F10108B4
:104440000AF1FF3BBAF1000FD5DD29463020B04715
:10445000002857DB0134DA46F2E70C9B03F1FF3A00
:10446000002B07DD29463020B04700284ADB013405
:104470005346F3E7079B4246294630460AF0AEFC16
:1044800000283FDB044432E09DF82A30C3F30012D9
:10449000C3F3C0031A4305D029463020B047002893
:1044A00030DB01349DF82A3013F0100F06D0294676
:1044B0009DF82B00B047002824DB01340B9B03F14F
:1044C000FF3A002B07DD29463020B047002819DBD2
:1044D00001345346F3E7079B4246294630460AF02B
:1044E0007DFC00280EDB044401E00134013F002F75
:1044F00005DD29462020B0470028F6DA02E0C8464C
:10450000B2E4204617B0BDE8F08F00BFF1600100B3
:10451000418B01002DE9F04383B00446084615465F
:10452000238B13F0080F05D103F007060023009337
:10453000019354E0012909D043F02003238385F33C
:104540001188BFF36F8F03B0BDE8F08343F0100311
:104550002383F4E720460AF07FFF42E0D4F814906A
:104560004A46694620460AF090FF4FF00008238B28
:1045700003F00707B74269D0A268002A66D001227B
:1045800043F00803238385F31188BFF36F8F002A5C
:1045900064D1009B2BB14B463A46694620460AF04F
:1045A000EDFFB8F1000F02D034492046C047EFF3C9
:1045B0001185202383F31288BFF36F8F238B23F0A1
:1045C00008032383238B13F0100F4DD023F0100327
:1045D00023830120268B06F007060028AFD002288F
:1045E000B8D00028ABD0013804282BD801A353F849
:1045F00020F000BF5D450000454600000946000070
:104600001D460000314600002369D3F800800621D2
:1046100020460AF0F7FE4FF00009A8E72369D3F817
:104620000480042120460AF0EDFE4FF000099EE7C9
:104630002369D3F80880052120460AF0E3FE4FF0F5
:10464000000994E74FF00008C14690E7009A0AB1CC
:10465000002295E7B8F1000F92D1B3E74A463946F8
:1046600020460AF0D7FE94E713F0200F04D023F081
:10467000200323830220ADE70020ABE7ABF5000069
:1046800038B505460B4C00E010340B4B9C420FD262
:1046900063685B79002BF7D0294620460BF05AF867
:1046A0000028F1D023681B68294620469847EBE78D
:1046B00038BD00BF745301008453010070B5064635
:1046C0000D46084C04E02A463146204698471034EF
:1046D000054B9C4204D223689B69002BF3D1F6E77B
:1046E00070BD00BF74530100845301002DE9F041F7
:1046F000074605460AE007EA0807144B03EB0613D2
:104700005B6804221968204600F09EFAD5B195FA3C
:10471000A5F6B6FA86F60D4C04EB06140123B34059
:104720006FEA030825EA0305237B002BEED0330153
:10473000064AD3581B69002BDDD020469847002835
:10474000E4D1D8E73846BDE8F08100BF74530100DA
:104750002DE9F04180460F461E4BD3E8EF5F6A1CFF
:10476000C3E8E12F0029F8D1002D2FD11A4C0026E3
:1047700007E0636804221968204600F065FA0136F4
:104780001034164B9C4213D2237B002BF7D02368A6
:10479000DB680BB12046984723681B69002BE8D0E3
:1047A000204698470028E4D00123B3401D43E6E7A4
:1047B000B8F1000F0BD055B12846FFF797FF05461B
:1047C000002FF8D00A200AF0CBFFF4E70025284696
:1047D000BDE8F081283200207453010084530100A9
:1047E00008B5064B186018B1054B1B68092B00DC97
:1047F00008BD044807F070FDFAE700BF1C32002036
:1048000024320020B016002008B5024807F064FDED
:1048100008BD00BFB016002030B589B000220F4996
:104820000F480FF0D3FC0F4D00220023CDE90623E3
:10483000002404940E2303930294019400940A4BE1
:104840004FF44072094928460FF07DFA084928467E
:104850000FF069FA204609B030BD00BF09480000DA
:10486000E028002048180020A94B0000605B0020D1
:10487000F4600100014B53F8200070471061010003
:1048800048B108B5054A1060054B1960084600F0AC
:10489000FFFC002008BD6FF015007047501100208C
:1048A0001832002008B5054B1B781BB1034B0122C1
:1048B0001A7008BD024807F00FFDF7E7513B0020D2
:1048C000B016002008B50C4BD3E8EF1F0131C3E848
:1048D000E21F002AF8D130B908480FF083FC0848DD
:1048E00007F0FAFC08BD074BD3E8EF1F0139C3E816
:1048F000E21F002AF0D0F7E720320020E028002055
:10490000B016002024320020044B00200146D3E8DA
:10491000EF0FC3E8E21F002AF9D1704720320020D0
:1049200038B5FFF7F1FF0546094C00E01034094B9C
:104930009C420BD263685B79002BF7D023685B68DD
:10494000002BF3D0294620469847EFE738BD00BF3B
:104950007453010084530100034B18680028D4BF2E
:1049600000200120704700BF2032002010B5044C09
:10497000044920460AF0A1FB034B1C6010BD00BF98
:10498000A4150020FC6001001432002008B50023AB
:10499000064A1370064A1360064A13600649074820
:1049A000FFF76EFFFFF7E2FF08BD00BF523B00209C
:1049B000203200202432002040420F0059F700002E
:1049C00008B5014601480AF0F9FE08BDA41500200B
:1049D00008B502480AF054FC08BD00BFA415002029
:1049E00008B50146024B18680AF0EEFE08BD00BF8C
:1049F0001432002008B502480AF0EAFE08BD00BFE4
:104A0000A415002010B582B000220023CDE90023B8
:104A1000284B187808B902B010BD68460AF0F0FEBD
:104A2000044668B1244BD3E8EF1F0139C3E8E21F05
:104A3000002AF8D12046FFF723FE2046FFF7D0FFDB
:104A4000FFF78AFF58B91D4A1368516813F57A7346
:104A500041F1000113605160FFF7CCFFDBE70FF07D
:104A6000A6FB02464B0143EAD0634001801A63EB88
:104A700001039B0043EA9073800010EB020C43EBB0
:104A80000101C90047F6122200234FEACC0041EA97
:104A90005C71FBF7F3FC094A13685268C01A61EBBA
:104AA000020140F2E933984271F10001CBD3FFF7E4
:104AB00037FFC8E7513B002024320020D8280020CF
:104AC0000F4B1B7803B1704710B500210120FFF791
:104AD0003FFE0C4C00E010340B4B9C4208D2636844
:104AE0005B79002BF7D023689B6820469847F2E754
:104AF000FFF788FF0028FBD1014B01221A7010BD7F
:104B0000523B0020745301008453010010B582B061
:104B1000184BD3E8EF2F511CC3E8E01F0028F8D151
:104B2000154B1B7863B9154B1B68B3B1BAB1092A91
:104B300013D113480FF056FB124807F0CDFB0CE0E1
:104B4000EFF31184202383F31288BFF36F8FFFF7F5
:104B500059FF84F31188BFF36F8F02B010BD00229C
:104B60000023CDE9002347F612220023044808F071
:104B700089FCF2E724320020523B00201C32002046
:104B8000E0280020B016002010B50446044B1B6836
:104B90009847A060214603480AF036FE10BD00BFCA
:104BA00050110020A41500202DE9F04100210846F5
:104BB000FFF7CEFD804640B140F21B66002708F0AB
:104BC0004BF9FFF70DFE002515E04FF0FF364FF0D3
:104BD000FF37F4E74046FFF789FD804670B94FF094
:104BE000FF364FF0FF3709E02C4632463B46094876
:104BF00007F0B2FB2546B8F1000FEBD1FFF702FF3B
:104C000004460028F6D1002DEED000210846FFF71B
:104C100055FDEAE7B01600200248034BC01AC00851
:104C2000704700BF74530100A452010010B50C4638
:104C3000FFF7F2FFA04203D9024B53F8340010BD36
:104C40000020FCE7A452010008B5094BC31A1B1150
:104C50000133D0F804C08CF8043043689A7143687B
:104C60001960436801225A71FFF71CFE08BD00BF9E
:104C70007453010000B589B0059206930023079391
:104C800062B1074A0C9B02930B9B01930A9B009312
:104C900005ABFEF795FB09B05DF804FB0022F1E7D8
:104CA00019F800002DE9F04F8BB004AF05461E4601
:104CB0008846C1F34A24002C00F0898091460022E6
:104CC000FA603A617A6104230293FB1801930A2384
:104CD000009307F10C0321464846FEF771FBB0F53F
:104CE000006F58D3D9F804106D4600233B7302239C
:104CF0007B738AB004AC14F1100217D012201AB1E1
:104D0000042801DD3B4B636100233B7002237B7071
:104D1000CAB10346082800DDA1610C2B02DD40F278
:104D2000FF73E36104F1200300210AE06FF000400B
:104D3000E5E701F118063E4416F8186C03F8016B1C
:104D400001310129F5D9112822DD122342B10421B4
:104D5000397300217973B9730121F973F8682061FF
:104D600000216FF300016FF341016FF382016FF3D4
:104D7000C501022060F38811C3F30A0363F35321D2
:104D80000023C1F313011C480AF0C6FDAD462DE017
:104D90006FF01B03DAE760F35328C0F30A0A0AEB4B
:104DA0001850173020F007008008FFF709FE8346EF
:104DB000B0B104230293FB1801930A2300935346D6
:104DC00000F1100221464846FFF754FF08E004EBCB
:104DD0001154173424F00704A008FFF7F1FD8346AF
:104DE00033464246294658460AF02CFD1C37BD463C
:104DF000BDE8F08F30610100E45201002DE9F04F71
:104E000085B080460D4617461E46DDF838B0DDF801
:104E10004090B9F1000F41D0119B039300934B4692
:104E20000F9A10210020FEF771F8B0F5006F2DD217
:104E300082460BEB0003173323F0070300246FF3C4
:104E400000046FF341046FF3820468F3C50467F351
:104E5000881460F353246BF31F549808FFF7B0FDD8
:104E6000074650B11030B9F1000F06D0119B0093E6
:104E70004B460F9A5146FEF749F8334622462946DB
:104E800038460AF0DFFC05B0BDE8F08F40F2FF7352
:104E9000034A022103480AF027FDF4E70020C7E790
:104EA00070610100E4520100406820B1034BC01A58
:104EB00040F3CF0070474FF0FF307047A45201001D
:104EC0000EB400B584B0014605AB53F8042B039330
:104ED000002000900348FEF7BFFF04B05DF804EB2C
:104EE00003B070474FF9000010B584B011F0440FC3
:104EF00005D01A4B1B6833B9002004B010BD184907
:104F0000FFF7DEFFF9E717490968B2FBF1F2B2FBE0
:104F1000F3FC03FB1C224FF47A7E0EFB02F2B2FB81
:104F2000F3F403FB14210EFB01F1B1FBF3F10E4A84
:104F3000A2FB0C32D20A4FF4616303FB12CC0B4B81
:104F4000A3FB0CE35B0902910194C3EB0311ACEBEF
:104F5000810100910649FFF7B3FFCEE73032002010
:104F6000A86101002C320020C5B3A29189888888ED
:104F7000B461010061B108B52AB1064A52F8232094
:104F800012B9054A00E0044A0449FFF799FF08BD39
:104F9000704700BF5C620100D0610100D861010070
:104FA0002DE9F04105461746069EDDF81C8081B9C3
:104FB00000242EB1324611492846FFF781FF0444F0
:104FC000B8F1000F14D06FB1099B042B13D00C491A
:104FD00009E00C4B099A53F822200B49FFF770FFA8
:104FE0000446E6E7064942462846FFF769FF0444BF
:104FF0002046BDE8F0810549F5E700BFF0610100FA
:10500000E061010070620100E8610100DC61010003
:105010002DE9F04F87B005460C46049205939DF8A4
:105020004C7001F0020B01F0010AC1F3C00801F459
:1050300080790AF0EFFB18B3024616492846FFF7BD
:105040003FFF0646BBF1000F1CD13A4651462846A9
:105050000AF0ACFCB9F1000F01D0002311930397C3
:10506000129B0293119B0193109B00930023049ABF
:1050700041462846FFF794FF304407B0BDE8F08F63
:105080000026DFE7059A21462846FFF72DFF064454
:10509000DBE700BFF461010011F0100F0BD108B580
:1050A00011F0200F03D00449FFF70AFF08BD0349A0
:1050B000FFF706FFFAE77047D8630100F8610100C7
:1050C0002DE9F04105460F46164698460699FFF72A
:1050D000E3FF0024444505DA24492846FFF7F0FEA3
:1050E0000134F7E7002409E020492846FFF7E8FEED
:1050F0000BE01F492846FFF7E3FE01340F2C0CDCC0
:10510000002C02DD14F0070FEED0B442F1D23A5D6C
:1051100018492846FFF7D4FEEFE717492846FFF75E
:10512000CFFE002409E011492846FFF7C9FE0BE035
:1051300012492846FFF7C4FE01340F2C13DC002C63
:1051400002DD14F0070FEED0B44207D23A5D0C4BEB
:105150009B5C13F0970FEBD12E22E9E70349284619
:10516000FFF7AEFEE8E7BDE8F08100BFEC610100AB
:1051700064750100FC610100046201000862010025
:10518000418B01002DE9F04184B004469DF82C507C
:105190000C9F0E9E95B9012B1ED019484FF00008A8
:1051A00027B13B462246174909F05DFBC6B905BB4E
:1051B00020460AF0B5FB04B0BDE8F08103950A98DB
:1051C0000290019300920B4600220F992046FFF7B0
:1051D0001FFF80460C48E3E70B484FF00008DFE76D
:1051E0000F9B0093434632460D9920460AF0F6FB8A
:1051F000DDE72A460F9920460AF0E4FBD8E700BF16
:105200007FF900009DF900004FF900002DE9F043FF
:1052100083B00646056842F20F738B4228BF0B46E7
:10522000184A0521684609F0A0FB04467368D3F8C4
:1052300004900B27DFF8508005E04A463946404687
:10524000A8473F1A8044002FF7D17368D3F8048031
:105250006F4605E0424621463846A847241A0744CF
:10526000002CF7D173685F681B24084E05E03A46AE
:1052700021463046A847241A0644002CF7D103B033
:10528000BDE8F083605C0100286201000C6201004F
:10529000074B01221A6004E04008054A13685B00CE
:1052A0001360044B9842F7D8034B1860704700BF57
:1052B0002C32002040420F0030320020034B0122EC
:1052C0001A70034B034A1A60704700BF533B00201B
:1052D0005C3200206032002008B5034B01221A70B6
:1052E00002480AF0C9FB08BD543B0020B06201002F
:1052F000014B1960002070474832002008B518B9EA
:10530000074B00221A7008BD064B1B7823B141F2EF
:1053100088300EF044FBF6E705200AF0C4FBF2E704
:10532000533B0020543B002038B504460A4B012271
:105330001A700A4B1B782BB938BD651E2046FFF743
:10534000DDFF2C46002006F0FFFB0028F4D0024BC6
:105350001B78002BF1D1EFE7533B0020543B00209A
:105360002DE9F04107460E464FF004080DE03246A5
:105370003946002006F02EFB044616E04046FFF7B3
:10538000D3FFF4B9134B1B78DBB1134B1B78002B05
:10539000EDD10EF0F7FA054632463946002006F008
:1053A00019FB044628460EF0F5FA002CE6D1094B0D
:1053B0001B78002BE5D008F1FF384046FFF79EFF31
:1053C000DFE714B9034B1B7803B934462046BDE828
:1053D000F08100BF533B0020543B002008B5024839
:1053E000FFF714FF08BD00BFB062010010B50C4606
:1053F000044B1868FFF73EFA03460F222146024885
:10540000984710BD48320020B0620100014B036094
:1054100000207047C0620100012806D0032806D092
:1054200008B104487047044870470448704704486E
:10543000704700BFA8630100C0620100C86201009C
:10544000006F010070B54569ADB30C462B791E4A5B
:10545000565CB34232D01D4A525C934231D1AB68A4
:105460009847002804DB2E71022C12D0002021E086
:10547000022C0CD0032C1DD110F1860F07D0D5E8DB
:10548000EF3F43F00203C5E8E23F002AF7D12E7157
:1054900010E0D5E8EF3F23F00403C5E8E23F002A1F
:1054A000F7D1D5E8EF3F23F00203C5E8E23F002A39
:1054B000F7D1002070BD6FF05700FBE76FF0770069
:1054C000F8E76FF08500F5E7D8620100D4620100CB
:1054D0002DE9F0410746FAF7F5FF0646EFF311888C
:1054E000202383F31288BFF36F8F114B1C689C42FB
:1054F00006D1002404E00E4B5B689C4215D0246862
:1055000064B1A5682846FAF7DDFFB042F3D1324610
:10551000294638460FF080F80028ECD188F311882E
:10552000BFF36F8F2046BDE8F0810024E8E700BF9D
:1055300054110020F8B50C461546FFF7C9FF0028A6
:105540004ED00746C368002B4DD01E69002E4DD0AB
:10555000062C05D0072C1ED02A462146B047F8BDA0
:10556000838A43B92A462146B0470028F7D1BB8A2F
:105570000133BB82F3E74FF6FF72934203D001334E
:1055800083820020EBE71B4A01211B480AF0A2F9A5
:105590006FF01500E3E74DB12A783AB10026868214
:1055A0001B692A46214698473046D8E7BB8A012B1B
:1055B00004D06BB1013BBB820020D0E72A462146D4
:1055C0003846B0470028CAD1BB8A013BBB82C6E738
:1055D0000A4A022108480AF07DF96FF01500BEE77B
:1055E0006FF01500BBE76FF01500B8E76FF015001E
:1055F000B5E700BFE8620100CC5201000C63010076
:1056000010B5C8B104468068B0B1FFF761FFD8B9E2
:105610000020A082EFF31181202383F31288BFF3CF
:105620006F8F0D4B5A682360626014605C6081F379
:105630001188BFF36F8F10BD084A012108480AF096
:1056400049F96FF01500F6E7064A012104480AF00F
:1056500041F96FF01500EEE7541100202C630100B2
:10566000CC5201004863010008B5034809F06FF906
:10567000024809F06CF908BD74630100AC630100D5
:105680002DE9F04182B000AF0446D0F800E0D0F838
:1056900004C085686E468AB06B4613F1100200F0B4
:1056A000888014218AB10846042903DDDFF81C81B3
:1056B000C3F81480082801DDC3F818E00C2801DDC8
:1056C000C3F81CC0102800DD1D62132974DD1425E9
:1056D0003AB10521397100217971B971F971786890
:1056E000186100216FF300016FF341016FF3820134
:1056F0006FF3C501012363F38811C5F30A0565F350
:1057000053216FF31F5100233148FFF7CBFAB54601
:10571000D4F80CC026696569E8468AB06B4613F177
:1057200010024CD0142182B10846042903DDDFF8B1
:10573000A4E0C3F814E0082801DDC3F818C00C2861
:1057400000DDDE61102800DD1D6213293ADD14251D
:105750003AB10521397100217971B971F97178680F
:10576000186100216FF300016FF341016FF38201B3
:105770006FF3C501012666F38811C5F30A0565F3C9
:1057800053216FF31F51124D00232846FFF78AFA69
:10579000C546E369104A314628460AF0A5F8A369D0
:1057A0000E4A314628460AF09FF80837BD46BDE844
:1057B000F0816FF0004175E76FF01B0588E76FF02F
:1057C0000041B0E76FF01B05C2E700BFDC630100DA
:1057D000045301000C6401003C6401004C640100AE
:1057E00038B504460D4611B10846FFF749FF012CB4
:1057F00004D02946204606F003FA38BDEFF30583AE
:10580000103B034A012103480AF06EF8F1E700BF9C
:105810007C6401000453010030BFFFF7FDBF00BFEF
:10582000074B9B6893F90E20002A08DB044A526953
:10583000934204D0034A536843F080535360704747
:105840000035002000ED00E081690D4B5A6942F4FB
:1058500080725A61BFF34F8FBFF36F8F31F8021C14
:105860005A6922F480725A61BFF34F8FBFF36F8F72
:105870004DF60273994201D0002070470120704715
:1058800000ED00E04FF0000C83F800C002F07F4C08
:10589000BCF17F4F14D102F00C0CBCF1080F04D006
:1058A00012F0080F09D00846704708B5054A0121D3
:1058B00005480AF00FF8002008BD01221A70704751
:1058C00000207047906401000453010008B5314A7C
:1058D0000121314809F0FEFF304B9B6A13F0007F35
:1058E00026D11D202D4B9B6A13F0807F27D12B4B97
:1058F0009B6A13F4801F29D1284B9B6A13F4002F55
:105900002BD1264B9B6A13F4802F2DD1234B9B6AFE
:1059100013F4003F2FD1214B9B6A13F4803F31D108
:105920001E4A936A6FEA03436FEA1343936208BD0A
:105930001B4A0121184809F0CDFF1E20D2E7194A61
:105940000121154809F0C6FF1F20D0E7164A0121A2
:10595000114809F0BFFF0220CEE7144A01210E488A
:1059600009F0B8FF2120CCE7114A01210A4809F0CB
:10597000B1FF2220CAE70F4A0121074809F0AAFF18
:105980002320C8E70C4A0121034809F0A3FF242083
:10599000C6E700BFBC6401000453010000ED00E055
:1059A000D4640100E8640100046501003065010071
:1059B00050650100786501009465010008B5002379
:1059C0000B70034A0121034809F084FF08BD00BFA2
:1059D000C06501000453010090B583B000AF0F29EA
:1059E00023DC2F4C103900233B7102237B718AB0DA
:1059F000EC461CF110021AD0122022B1042802DD5C
:105A0000284BCCF8143000233B7002237B70E2B1AA
:105A10000346082801DDCCF818400C2B01DDCCF83A
:105A20001C100CF1200300210DE01F4CDAE76FF091
:105A30000040E2E701F1080404EB070E1EF808EC51
:105A400003F801EB01310129F4D9112824DD1223D7
:105A50004AB10421397100217971B9710121F971BB
:105A60007868CCF8100000216FF300016FF341015A
:105A70006FF382016FF3C501012060F38811C3F356
:105A80000A0363F353216FF31F5100230748FFF705
:105A900009F90C37BD4690BD6FF01B03D8E700BF76
:105AA000E465010018660100FC6501000453010073
:105AB000F8B505460F461446394A0121394809F020
:105AC00009FF394B9B6A13F0100F31D11026364B6A
:105AD0009B6A13F0080F32D1334B9B6A13F0020F0D
:105AE00034D1314B9B6A13F0010F4BD12E4B9B6A83
:105AF00013F0200F4DD12C4B9B6A13F0100F01D1E6
:105B0000294B9B6A284B9B6A13F0200F04D0264A2E
:105B1000536A23F400535362234A936A43F0FF030A
:105B20009362012128460AF096F820703046F8BDAD
:105B30001E4A01211B4809F0CDFE1126C7E71C4A69
:105B40000121184809F0C6FE1226C5E7194A0121AD
:105B5000144809F0BFFE144A536B926A12F0800F8A
:105B600001D11326BDE7144A01210E4809F0BCFEFD
:105B700037B10D4A936A23F0800393621326B0E78E
:105B80001326AEE70D4A0121064809F0A3FE1426AC
:105B9000ACE70B4A0121034809F09CFE1526AAE751
:105BA0002C6601000453010000ED00E04466010092
:105BB000786601008C660100A4660100BC660100E5
:105BC000DC660100F8B505460F461446374A012148
:105BD000374809F07FFE374B9B6A13F4805F25D16D
:105BE0001626344B9B6A13F4006F26D1314B9B6A07
:105BF00013F4007F28D12F4B9B6A13F4806F3FD1A1
:105C00002C4B9B6A13F4807F41D12A4B9B6A13F47F
:105C1000005F43D1274A936A43F47F439362012193
:105C200028460AF018F820703046F8BD224A0121B3
:105C30001F4809F04FFE1726D3E7204A01211C48D0
:105C400009F048FE1826D1E71D4A0121184809F03D
:105C500041FE184A936B926A12F4004F01D1192643
:105C6000C9E7184A0121124809F03EFE37B1114A2E
:105C7000936A23F4004393621926BCE71926BAE716
:105C8000114A01210A4809F025FE1A26B8E70F4AF1
:105C90000121074809F01EFE1B26BBE70C4A012123
:105CA000034809F017FE1C26B4E700BF0C6701008B
:105CB0000453010000ED00E0246701007866010054
:105CC00038670100546701006C67010088670100B4
:105CD000DC66010070B506460D462B4A01212B48B3
:105CE00009F0F8FD00232B70294BDC6A14F0020444
:105CF0000AD1274BDB6A002B0DDB254BDC6A14F045
:105D000080440ED1204670BD224A01211F4809F06F
:105D1000E1FD0024F6E7204A01211C4809F0DAFDE4
:105D2000F0E71E4A0121194809F0D4FD3046FFF77B
:105D30008BFD98B9164B9B6A13F0FF0F16D1144BCD
:105D40009C6A14F47F4418D1114B9B6AB3F5803FD1
:105D5000D8D33046FFF7BAFD0446D3E73368104A7C
:105D600001210A4809F0C0FD3468CBE72A46012129
:105D70003046FFF79DFE0446C4E72A46012130461F
:105D8000FFF720FF0446BDE7A067010004530100B0
:105D900000ED00E0B8670100DC670100EC6701007E
:105DA0000C68010030B58BB01F4B5D68C5F308056A
:105DB000002383F31188BFF36F8F0DF12603FFF7E4
:105DC00061FD04460DF12702294609F046FF9DF8C2
:105DD00027300BB10BB030BD05460DF1040C206827
:105DE0006168A268E368ACE80F0020696169A26994
:105DF000E369ACE80F009DF826304BB1089BC3F374
:105E000008025AB96FEA53236FEA4323089305E067
:105E1000089B23F4FF7323F00103089301A928468C
:105E2000FFF7DEFCD6E700BF00ED00E0064B5A6945
:105E300042F010025A615A6942F480625A615A690A
:105E400022F008025A61704700ED00E0EFF308808D
:105E5000EFF3098101B57246FFF7A4FF01BD00BF52
:105E6000002080F31488BFF36F8F002080F30A882E
:105E700080F30B880F4880F3088804F041FB002072
:105E80000D490860BFF34F8F00F02EF8202080F3FB
:105E900011880A484FF40061401880F30988EFF335
:105EA00014800221084380F31488BFF36F8F00F041
:105EB000E1F80000A077002094ED00E0605E002093
:105EC000084BD3F89000C0F30720002306E0054AF2
